{
  "contractName": "Election",
  "abi": [
    {
      "inputs": [],
      "payable": false,
      "stateMutability": "nonpayable",
      "type": "constructor"
    },
    {
      "anonymous": false,
      "inputs": [
        {
          "indexed": true,
          "internalType": "uint256",
          "name": "_candidateId",
          "type": "uint256"
        }
      ],
      "name": "votedEvent",
      "type": "event"
    },
    {
      "constant": true,
      "inputs": [],
      "name": "candidate",
      "outputs": [
        {
          "internalType": "string",
          "name": "",
          "type": "string"
        }
      ],
      "payable": false,
      "stateMutability": "view",
      "type": "function"
    },
    {
      "constant": true,
      "inputs": [
        {
          "internalType": "uint256",
          "name": "",
          "type": "uint256"
        }
      ],
      "name": "candidates",
      "outputs": [
        {
          "internalType": "uint256",
          "name": "id",
          "type": "uint256"
        },
        {
          "internalType": "string",
          "name": "name",
          "type": "string"
        },
        {
          "internalType": "uint256",
          "name": "voteCount",
          "type": "uint256"
        }
      ],
      "payable": false,
      "stateMutability": "view",
      "type": "function"
    },
    {
      "constant": true,
      "inputs": [],
      "name": "candidatesCount",
      "outputs": [
        {
          "internalType": "uint256",
          "name": "",
          "type": "uint256"
        }
      ],
      "payable": false,
      "stateMutability": "view",
      "type": "function"
    },
    {
      "constant": true,
      "inputs": [],
      "name": "compte",
      "outputs": [
        {
          "internalType": "uint256",
          "name": "",
          "type": "uint256"
        }
      ],
      "payable": false,
      "stateMutability": "view",
      "type": "function"
    },
    {
      "constant": true,
      "inputs": [
        {
          "internalType": "address",
          "name": "",
          "type": "address"
        }
      ],
      "name": "voters",
      "outputs": [
        {
          "internalType": "bool",
          "name": "",
          "type": "bool"
        }
      ],
      "payable": false,
      "stateMutability": "view",
      "type": "function"
    },
    {
      "constant": false,
      "inputs": [
        {
          "internalType": "string",
          "name": "name",
          "type": "string"
        }
      ],
      "name": "addCandidate",
      "outputs": [],
      "payable": false,
      "stateMutability": "nonpayable",
      "type": "function"
    },
    {
      "constant": false,
      "inputs": [
        {
          "internalType": "uint256",
          "name": "_candidateId",
          "type": "uint256"
        }
      ],
      "name": "vote",
      "outputs": [],
      "payable": false,
      "stateMutability": "nonpayable",
      "type": "function"
    }
  ],
  "bytecode": "0x6080604052600060025534801561001557600080fd5b5061005a6040518060400160405280600b81526020017f63616e64696461746520310000000000000000000000000000000000000000008152506100e760201b60201c565b61009e6040518060400160405280600b81526020017f63616e64696461746520320000000000000000000000000000000000000000008152506100e760201b60201c565b6100e26040518060400160405280600b81526020017f63616e64696461746520330000000000000000000000000000000000000000008152506100e760201b60201c565b610208565b600360008154809291906001019190505550604051806060016040528060035481526020018281526020016000815250600160006003548152602001908152602001600020600082015181600001556020820151816001019080519060200190610152929190610163565b506040820151816002015590505050565b828054600181600116156101000203166002900490600052602060002090601f016020900481019282601f106101a457805160ff19168380011785556101d2565b828001600101855582156101d2579182015b828111156101d15782518255916020019190600101906101b6565b5b5090506101df91906101e3565b5090565b61020591905b808211156102015760008160009055506001016101e9565b5090565b90565b61073d806102176000396000f3fe608060405234801561001057600080fd5b506004361061007d5760003560e01c80633477ee2e1161005b5780633477ee2e146100ec578063462e91ec146101a15780636c8381f81461025c578063a3ec138d146102df5761007d565b80630121b93f146100825780632d35a8a2146100b057806330f814d5146100ce575b600080fd5b6100ae6004803603602081101561009857600080fd5b810190808035906020019092919050505061033b565b005b6100b861045b565b6040518082815260200191505060405180910390f35b6100d6610461565b6040518082815260200191505060405180910390f35b6101186004803603602081101561010257600080fd5b8101908080359060200190929190505050610467565b6040518084815260200180602001838152602001828103825284818151815260200191508051906020019080838360005b83811015610164578082015181840152602081019050610149565b50505050905090810190601f1680156101915780820380516001836020036101000a031916815260200191505b5094505050505060405180910390f35b61025a600480360360208110156101b757600080fd5b81019080803590602001906401000000008111156101d457600080fd5b8201836020820111156101e657600080fd5b8035906020019184600183028401116401000000008311171561020857600080fd5b91908080601f016020809104026020016040519081016040528093929190818152602001838380828437600081840152601f19601f820116905080830192505050505050509192919290505050610529565b005b6102646105a5565b6040518080602001828103825283818151815260200191508051906020019080838360005b838110156102a4578082015181840152602081019050610289565b50505050905090810190601f1680156102d15780820380516001836020036101000a031916815260200191505b509250505060405180910390f35b610321600480360360208110156102f557600080fd5b81019080803573ffffffffffffffffffffffffffffffffffffffff169060200190929190505050610643565b604051808215151515815260200191505060405180910390f35b600460003373ffffffffffffffffffffffffffffffffffffffff1673ffffffffffffffffffffffffffffffffffffffff16815260200190815260200160002060009054906101000a900460ff161561039257600080fd5b6000811180156103a457506003548111155b6103ad57600080fd5b6001600460003373ffffffffffffffffffffffffffffffffffffffff1673ffffffffffffffffffffffffffffffffffffffff16815260200190815260200160002060006101000a81548160ff0219169083151502179055506001600082815260200190815260200160002060020160008154809291906001019190505550807ffff3c900d938d21d0990d786e819f29b8d05c1ef587b462b939609625b684b1660405160405180910390a250565b60035481565b60025481565b6001602052806000526040600020600091509050806000015490806001018054600181600116156101000203166002900480601f0160208091040260200160405190810160405280929190818152602001828054600181600116156101000203166002900480156105195780601f106104ee57610100808354040283529160200191610519565b820191906000526020600020905b8154815290600101906020018083116104fc57829003601f168201915b5050505050908060020154905083565b600360008154809291906001019190505550604051806060016040528060035481526020018281526020016000815250600160006003548152602001908152602001600020600082015181600001556020820151816001019080519060200190610594929190610663565b506040820151816002015590505050565b60008054600181600116156101000203166002900480601f01602080910402602001604051908101604052809291908181526020018280546001816001161561010002031660029004801561063b5780601f106106105761010080835404028352916020019161063b565b820191906000526020600020905b81548152906001019060200180831161061e57829003601f168201915b505050505081565b60046020528060005260406000206000915054906101000a900460ff1681565b828054600181600116156101000203166002900490600052602060002090601f016020900481019282601f106106a457805160ff19168380011785556106d2565b828001600101855582156106d2579182015b828111156106d15782518255916020019190600101906106b6565b5b5090506106df91906106e3565b5090565b61070591905b808211156107015760008160009055506001016106e9565b5090565b9056fea265627a7a723158206e673906dbd7d1a3f17244a77606adc1137e5c21fea67747f2c6ea8dc141a11d64736f6c63430005100032",
  "source": "pragma solidity ^0.5.0;\r\n\r\ncontract Election {\r\n // Read/write candidate\r\n string public candidate;\r\n\r\n\r\n // Model a Candidate\r\n struct Candidate  {\r\n uint id;\r\n string name;\r\n uint voteCount;\r\n }\r\n//mapping(address =>bool) public comptes;\r\n// Read/write Candidates\r\n mapping(uint => Candidate) public candidates;\r\nuint public compte =0;\r\n // Store Candidates Count\r\nuint public candidatesCount;\r\n // Store accounts that have voted\r\nmapping(address=> bool) public voters;\r\n // Constructor\r\n constructor() public {\r\n  addCandidate(\"candidate 1\");\r\n  addCandidate(\"candidate 2\");\r\n  addCandidate(\"candidate 3\");\r\n\r\n }\r\n /*\r\n function addAccount() public  {\r\n     if(compte<2){\r\n        compte++;\r\n        comptes[msg.sender]=true;\r\n     }\r\n     console.log(comptes);\r\n }\r\n\r\n function verifyAccount() public   returns (bool)  {\r\n    if(comptes[msg.sender]==true){\r\n        return true;\r\n    }\r\n    else \r\n        return false;\r\n     /*for(uint i=0;i<accounts.length;i++){\r\n         if(keccak256(abi.encodePacked(accounts[i])) == keccak256(abi.encodePacked(ad)))\r\n            return true;\r\n     }\r\n     return false;\r\n   \r\n }\r\n */\r\n \r\n function addCandidate (string memory name) public {\r\n candidatesCount ++;\r\n candidates[candidatesCount] = Candidate(candidatesCount, name, 0);\r\n }\r\n\r\nfunction vote (uint _candidateId) public {\r\n // require that they haven't voted before\r\n require(!voters[msg.sender]);\r\n // require a valid candidate\r\n require(_candidateId > 0 && _candidateId <= candidatesCount);\r\n // record that voter has voted\r\n voters[msg.sender] = true;\r\n // update candidate vote Count\r\n candidates[_candidateId].voteCount ++;\r\n // trigger voted event\r\n emit votedEvent(_candidateId);\r\n}\r\nevent votedEvent (\r\n uint indexed _candidateId\r\n );\r\n}\r\n",
  "sourcePath": "C:\\Users\\nesri\\Downloads\\projetEthereum\\projetEthereum\\contracts\\Election.sol",
  "compiler": {
    "name": "solc",
    "version": "0.5.16+commit.9c3226ce.Emscripten.clang"
  },
  "schemaVersion": "3.4.3",
  "updatedAt": "2021-12-01T15:40:46.651Z",
  "networkType": "ethereum",
  "devdoc": {
    "methods": {}
  },
  "userdoc": {
    "methods": {}
  }
}